{
	"contracts/_WalletApplication.sol": {
		"WalletApp": {
			"abi": [
				{
					"inputs": [],
					"stateMutability": "nonpayable",
					"type": "constructor"
				},
				{
					"anonymous": false,
					"inputs": [
						{
							"indexed": false,
							"internalType": "address",
							"name": "owner",
							"type": "address"
						},
						{
							"indexed": false,
							"internalType": "string",
							"name": "message",
							"type": "string"
						}
					],
					"name": "Success",
					"type": "event"
				},
				{
					"inputs": [],
					"name": "balance",
					"outputs": [
						{
							"internalType": "uint256",
							"name": "",
							"type": "uint256"
						}
					],
					"stateMutability": "view",
					"type": "function"
				},
				{
					"inputs": [],
					"name": "owner",
					"outputs": [
						{
							"internalType": "address",
							"name": "",
							"type": "address"
						}
					],
					"stateMutability": "view",
					"type": "function"
				},
				{
					"inputs": [
						{
							"internalType": "uint256",
							"name": "amount",
							"type": "uint256"
						},
						{
							"internalType": "address payable",
							"name": "receiver",
							"type": "address"
						}
					],
					"name": "transfer",
					"outputs": [],
					"stateMutability": "nonpayable",
					"type": "function"
				},
				{
					"inputs": [
						{
							"internalType": "uint256",
							"name": "amount",
							"type": "uint256"
						},
						{
							"internalType": "address payable",
							"name": "destAddr",
							"type": "address"
						}
					],
					"name": "withdraw",
					"outputs": [],
					"stateMutability": "nonpayable",
					"type": "function"
				},
				{
					"stateMutability": "payable",
					"type": "receive"
				}
			],
			"devdoc": {
				"kind": "dev",
				"methods": {},
				"version": 1
			},
			"evm": {
				"assembly": "    /* \"contracts/_WalletApplication.sol\":68:1102  contract WalletApp {... */\n  mstore(0x40, 0x80)\n    /* \"contracts/_WalletApplication.sol\":152:203  constructor() {... */\n  callvalue\n  dup1\n  iszero\n  tag_1\n  jumpi\n  0x00\n  dup1\n  revert\ntag_1:\n  pop\n    /* \"contracts/_WalletApplication.sol\":185:195  msg.sender */\n  caller\n    /* \"contracts/_WalletApplication.sol\":177:182  owner */\n  0x00\n  dup1\n    /* \"contracts/_WalletApplication.sol\":177:195  owner = msg.sender */\n  0x0100\n  exp\n  dup2\n  sload\n  dup2\n  0xffffffffffffffffffffffffffffffffffffffff\n  mul\n  not\n  and\n  swap1\n  dup4\n  0xffffffffffffffffffffffffffffffffffffffff\n  and\n  mul\n  or\n  swap1\n  sstore\n  pop\n    /* \"contracts/_WalletApplication.sol\":68:1102  contract WalletApp {... */\n  dataSize(sub_0)\n  dup1\n  dataOffset(sub_0)\n  0x00\n  codecopy\n  0x00\n  return\nstop\n\nsub_0: assembly {\n        /* \"contracts/_WalletApplication.sol\":68:1102  contract WalletApp {... */\n      mstore(0x40, 0x80)\n      jumpi(tag_1, lt(calldatasize, 0x04))\n      shr(0xe0, calldataload(0x00))\n      dup1\n      0xf714ce\n      eq\n      tag_3\n      jumpi\n      dup1\n      0x8da5cb5b\n      eq\n      tag_4\n      jumpi\n      dup1\n      0xb69ef8a8\n      eq\n      tag_5\n      jumpi\n      dup1\n      0xb7760c8f\n      eq\n      tag_6\n      jumpi\n      jump(tag_2)\n    tag_1:\n      jumpi(tag_2, calldatasize)\n        /* \"contracts/_WalletApplication.sol\":260:269  msg.value */\n      callvalue\n        /* \"contracts/_WalletApplication.sol\":249:256  balance */\n      0x01\n      0x00\n        /* \"contracts/_WalletApplication.sol\":249:269  balance += msg.value */\n      dup3\n      dup3\n      sload\n      tag_9\n      swap2\n      swap1\n      tag_10\n      jump\t// in\n    tag_9:\n      swap3\n      pop\n      pop\n      dup2\n      swap1\n      sstore\n      stop\n        /* \"contracts/_WalletApplication.sol\":68:1102  contract WalletApp {... */\n    tag_2:\n      0x00\n      dup1\n      revert\n        /* \"contracts/_WalletApplication.sol\":571:870  function withdraw(uint amount, address payable destAddr) public ownerOnly {... */\n    tag_3:\n      callvalue\n      dup1\n      iszero\n      tag_11\n      jumpi\n      0x00\n      dup1\n      revert\n    tag_11:\n      pop\n      tag_12\n      0x04\n      dup1\n      calldatasize\n      sub\n      dup2\n      add\n      swap1\n      tag_13\n      swap2\n      swap1\n      tag_14\n      jump\t// in\n    tag_13:\n      tag_15\n      jump\t// in\n    tag_12:\n      stop\n        /* \"contracts/_WalletApplication.sol\":94:114  address public owner */\n    tag_4:\n      callvalue\n      dup1\n      iszero\n      tag_16\n      jumpi\n      0x00\n      dup1\n      revert\n    tag_16:\n      pop\n      tag_17\n      tag_18\n      jump\t// in\n    tag_17:\n      mload(0x40)\n      tag_19\n      swap2\n      swap1\n      tag_20\n      jump\t// in\n    tag_19:\n      mload(0x40)\n      dup1\n      swap2\n      sub\n      swap1\n      return\n        /* \"contracts/_WalletApplication.sol\":121:143  uint256 public balance */\n    tag_5:\n      callvalue\n      dup1\n      iszero\n      tag_21\n      jumpi\n      0x00\n      dup1\n      revert\n    tag_21:\n      pop\n      tag_22\n      tag_23\n      jump\t// in\n    tag_22:\n      mload(0x40)\n      tag_24\n      swap2\n      swap1\n      tag_25\n      jump\t// in\n    tag_24:\n      mload(0x40)\n      dup1\n      swap2\n      sub\n      swap1\n      return\n        /* \"contracts/_WalletApplication.sol\":878:1099  function transfer(uint amount, address payable receiver) external funds(amount) {... */\n    tag_6:\n      callvalue\n      dup1\n      iszero\n      tag_26\n      jumpi\n      0x00\n      dup1\n      revert\n    tag_26:\n      pop\n      tag_27\n      0x04\n      dup1\n      calldatasize\n      sub\n      dup2\n      add\n      swap1\n      tag_28\n      swap2\n      swap1\n      tag_14\n      jump\t// in\n    tag_28:\n      tag_29\n      jump\t// in\n    tag_27:\n      stop\n        /* \"contracts/_WalletApplication.sol\":571:870  function withdraw(uint amount, address payable destAddr) public ownerOnly {... */\n    tag_15:\n        /* \"contracts/_WalletApplication.sol\":340:345  owner */\n      0x00\n      dup1\n      sload\n      swap1\n      0x0100\n      exp\n      swap1\n      div\n      0xffffffffffffffffffffffffffffffffffffffff\n      and\n        /* \"contracts/_WalletApplication.sol\":326:345  msg.sender == owner */\n      0xffffffffffffffffffffffffffffffffffffffff\n      and\n        /* \"contracts/_WalletApplication.sol\":326:336  msg.sender */\n      caller\n        /* \"contracts/_WalletApplication.sol\":326:345  msg.sender == owner */\n      0xffffffffffffffffffffffffffffffffffffffff\n      and\n      eq\n        /* \"contracts/_WalletApplication.sol\":317:373  require (msg.sender == owner, 'Only owner can withdraw') */\n      tag_31\n      jumpi\n      mload(0x40)\n      0x08c379a000000000000000000000000000000000000000000000000000000000\n      dup2\n      mstore\n      0x04\n      add\n      tag_32\n      swap1\n      tag_33\n      jump\t// in\n    tag_32:\n      mload(0x40)\n      dup1\n      swap2\n      sub\n      swap1\n      revert\n    tag_31:\n        /* \"contracts/_WalletApplication.sol\":675:682  balance */\n      sload(0x01)\n        /* \"contracts/_WalletApplication.sol\":665:671  amount */\n      dup3\n        /* \"contracts/_WalletApplication.sol\":665:682  amount <= balance */\n      gt\n      iszero\n        /* \"contracts/_WalletApplication.sol\":656:705  require (amount <= balance, 'Insufficient funds') */\n      tag_35\n      jumpi\n      mload(0x40)\n      0x08c379a000000000000000000000000000000000000000000000000000000000\n      dup2\n      mstore\n      0x04\n      add\n      tag_36\n      swap1\n      tag_37\n      jump\t// in\n    tag_36:\n      mload(0x40)\n      dup1\n      swap2\n      sub\n      swap1\n      revert\n    tag_35:\n        /* \"contracts/_WalletApplication.sol\":716:724  destAddr */\n      dup1\n        /* \"contracts/_WalletApplication.sol\":716:733  destAddr.transfer */\n      0xffffffffffffffffffffffffffffffffffffffff\n      and\n        /* \"contracts/_WalletApplication.sol\":716:741  destAddr.transfer(amount) */\n      0x08fc\n        /* \"contracts/_WalletApplication.sol\":734:740  amount */\n      dup4\n        /* \"contracts/_WalletApplication.sol\":716:741  destAddr.transfer(amount) */\n      swap1\n      dup2\n      iszero\n      mul\n      swap1\n      mload(0x40)\n      0x00\n      mload(0x40)\n      dup1\n      dup4\n      sub\n      dup2\n      dup6\n      dup9\n      dup9\n      call\n      swap4\n      pop\n      pop\n      pop\n      pop\n      iszero\n      dup1\n      iszero\n      tag_39\n      jumpi\n      returndatasize\n      0x00\n      dup1\n      returndatacopy\n      revert(0x00, returndatasize)\n    tag_39:\n      pop\n        /* \"contracts/_WalletApplication.sol\":763:769  amount */\n      dup2\n        /* \"contracts/_WalletApplication.sol\":752:759  balance */\n      0x01\n      0x00\n        /* \"contracts/_WalletApplication.sol\":752:769  balance -= amount */\n      dup3\n      dup3\n      sload\n      tag_40\n      swap2\n      swap1\n      tag_41\n      jump\t// in\n    tag_40:\n      swap3\n      pop\n      pop\n      dup2\n      swap1\n      sstore\n      pop\n        /* \"contracts/_WalletApplication.sol\":785:854  Success(msg.sender, 'Congrats, your transaction has been processed!') */\n      0x9b3d185e86c934787e48a2eb1d737e4fe80c98d0a2c98b6ce95c4f36f1c93a04\n        /* \"contracts/_WalletApplication.sol\":793:803  msg.sender */\n      caller\n        /* \"contracts/_WalletApplication.sol\":785:854  Success(msg.sender, 'Congrats, your transaction has been processed!') */\n      mload(0x40)\n      tag_42\n      swap2\n      swap1\n      tag_43\n      jump\t// in\n    tag_42:\n      mload(0x40)\n      dup1\n      swap2\n      sub\n      swap1\n      log1\n        /* \"contracts/_WalletApplication.sol\":571:870  function withdraw(uint amount, address payable destAddr) public ownerOnly {... */\n      pop\n      pop\n      jump\t// out\n        /* \"contracts/_WalletApplication.sol\":94:114  address public owner */\n    tag_18:\n      0x00\n      dup1\n      sload\n      swap1\n      0x0100\n      exp\n      swap1\n      div\n      0xffffffffffffffffffffffffffffffffffffffff\n      and\n      dup2\n      jump\t// out\n        /* \"contracts/_WalletApplication.sol\":121:143  uint256 public balance */\n    tag_23:\n      sload(0x01)\n      dup2\n      jump\t// out\n        /* \"contracts/_WalletApplication.sol\":878:1099  function transfer(uint amount, address payable receiver) external funds(amount) {... */\n    tag_29:\n        /* \"contracts/_WalletApplication.sol\":950:956  amount */\n      dup2\n        /* \"contracts/_WalletApplication.sol\":459:466  balance */\n      sload(0x01)\n        /* \"contracts/_WalletApplication.sol\":449:455  amount */\n      dup2\n        /* \"contracts/_WalletApplication.sol\":449:466  amount <= balance */\n      gt\n      iszero\n        /* \"contracts/_WalletApplication.sol\":440:489  require (amount <= balance, 'Insufficient funds') */\n      tag_45\n      jumpi\n      mload(0x40)\n      0x08c379a000000000000000000000000000000000000000000000000000000000\n      dup2\n      mstore\n      0x04\n      add\n      tag_46\n      swap1\n      tag_37\n      jump\t// in\n    tag_46:\n      mload(0x40)\n      dup1\n      swap2\n      sub\n      swap1\n      revert\n    tag_45:\n        /* \"contracts/_WalletApplication.sol\":969:977  receiver */\n      dup2\n        /* \"contracts/_WalletApplication.sol\":969:986  receiver.transfer */\n      0xffffffffffffffffffffffffffffffffffffffff\n      and\n        /* \"contracts/_WalletApplication.sol\":969:994  receiver.transfer(amount) */\n      0x08fc\n        /* \"contracts/_WalletApplication.sol\":987:993  amount */\n      dup5\n        /* \"contracts/_WalletApplication.sol\":969:994  receiver.transfer(amount) */\n      swap1\n      dup2\n      iszero\n      mul\n      swap1\n      mload(0x40)\n      0x00\n      mload(0x40)\n      dup1\n      dup4\n      sub\n      dup2\n      dup6\n      dup9\n      dup9\n      call\n      swap4\n      pop\n      pop\n      pop\n      pop\n      iszero\n      dup1\n      iszero\n      tag_49\n      jumpi\n      returndatasize\n      0x00\n      dup1\n      returndatacopy\n      revert(0x00, returndatasize)\n    tag_49:\n      pop\n        /* \"contracts/_WalletApplication.sol\":1016:1022  amount */\n      dup3\n        /* \"contracts/_WalletApplication.sol\":1005:1012  balance */\n      0x01\n      0x00\n        /* \"contracts/_WalletApplication.sol\":1005:1022  balance -= amount */\n      dup3\n      dup3\n      sload\n      tag_50\n      swap2\n      swap1\n      tag_41\n      jump\t// in\n    tag_50:\n      swap3\n      pop\n      pop\n      dup2\n      swap1\n      sstore\n      pop\n        /* \"contracts/_WalletApplication.sol\":1038:1090  Success(msg.sender, 'Congrats, you have just tras!') */\n      0x9b3d185e86c934787e48a2eb1d737e4fe80c98d0a2c98b6ce95c4f36f1c93a04\n        /* \"contracts/_WalletApplication.sol\":1046:1056  msg.sender */\n      caller\n        /* \"contracts/_WalletApplication.sol\":1038:1090  Success(msg.sender, 'Congrats, you have just tras!') */\n      mload(0x40)\n      tag_51\n      swap2\n      swap1\n      tag_52\n      jump\t// in\n    tag_51:\n      mload(0x40)\n      dup1\n      swap2\n      sub\n      swap1\n      log1\n        /* \"contracts/_WalletApplication.sol\":878:1099  function transfer(uint amount, address payable receiver) external funds(amount) {... */\n      pop\n      pop\n      pop\n      jump\t// out\n        /* \"#utility.yul\":7:84   */\n    tag_53:\n        /* \"#utility.yul\":44:51   */\n      0x00\n        /* \"#utility.yul\":73:78   */\n      dup2\n        /* \"#utility.yul\":62:78   */\n      swap1\n      pop\n        /* \"#utility.yul\":7:84   */\n      swap2\n      swap1\n      pop\n      jump\t// out\n        /* \"#utility.yul\":90:270   */\n    tag_54:\n        /* \"#utility.yul\":138:215   */\n      0x4e487b7100000000000000000000000000000000000000000000000000000000\n        /* \"#utility.yul\":135:136   */\n      0x00\n        /* \"#utility.yul\":128:216   */\n      mstore\n        /* \"#utility.yul\":235:239   */\n      0x11\n        /* \"#utility.yul\":232:233   */\n      0x04\n        /* \"#utility.yul\":225:240   */\n      mstore\n        /* \"#utility.yul\":259:263   */\n      0x24\n        /* \"#utility.yul\":256:257   */\n      0x00\n        /* \"#utility.yul\":249:264   */\n      revert\n        /* \"#utility.yul\":276:467   */\n    tag_10:\n        /* \"#utility.yul\":316:319   */\n      0x00\n        /* \"#utility.yul\":335:355   */\n      tag_80\n        /* \"#utility.yul\":353:354   */\n      dup3\n        /* \"#utility.yul\":335:355   */\n      tag_53\n      jump\t// in\n    tag_80:\n        /* \"#utility.yul\":330:355   */\n      swap2\n      pop\n        /* \"#utility.yul\":369:389   */\n      tag_81\n        /* \"#utility.yul\":387:388   */\n      dup4\n        /* \"#utility.yul\":369:389   */\n      tag_53\n      jump\t// in\n    tag_81:\n        /* \"#utility.yul\":364:389   */\n      swap3\n      pop\n        /* \"#utility.yul\":412:413   */\n      dup3\n        /* \"#utility.yul\":409:410   */\n      dup3\n        /* \"#utility.yul\":405:414   */\n      add\n        /* \"#utility.yul\":398:414   */\n      swap1\n      pop\n        /* \"#utility.yul\":433:436   */\n      dup1\n        /* \"#utility.yul\":430:431   */\n      dup3\n        /* \"#utility.yul\":427:437   */\n      gt\n        /* \"#utility.yul\":424:460   */\n      iszero\n      tag_82\n      jumpi\n        /* \"#utility.yul\":440:458   */\n      tag_83\n      tag_54\n      jump\t// in\n    tag_83:\n        /* \"#utility.yul\":424:460   */\n    tag_82:\n        /* \"#utility.yul\":276:467   */\n      swap3\n      swap2\n      pop\n      pop\n      jump\t// out\n        /* \"#utility.yul\":554:671   */\n    tag_56:\n        /* \"#utility.yul\":663:664   */\n      0x00\n        /* \"#utility.yul\":660:661   */\n      dup1\n        /* \"#utility.yul\":653:665   */\n      revert\n        /* \"#utility.yul\":800:922   */\n    tag_58:\n        /* \"#utility.yul\":873:897   */\n      tag_88\n        /* \"#utility.yul\":891:896   */\n      dup2\n        /* \"#utility.yul\":873:897   */\n      tag_53\n      jump\t// in\n    tag_88:\n        /* \"#utility.yul\":866:871   */\n      dup2\n        /* \"#utility.yul\":863:898   */\n      eq\n        /* \"#utility.yul\":853:916   */\n      tag_89\n      jumpi\n        /* \"#utility.yul\":912:913   */\n      0x00\n        /* \"#utility.yul\":909:910   */\n      dup1\n        /* \"#utility.yul\":902:914   */\n      revert\n        /* \"#utility.yul\":853:916   */\n    tag_89:\n        /* \"#utility.yul\":800:922   */\n      pop\n      jump\t// out\n        /* \"#utility.yul\":928:1067   */\n    tag_59:\n        /* \"#utility.yul\":974:979   */\n      0x00\n        /* \"#utility.yul\":1012:1018   */\n      dup2\n        /* \"#utility.yul\":999:1019   */\n      calldataload\n        /* \"#utility.yul\":990:1019   */\n      swap1\n      pop\n        /* \"#utility.yul\":1028:1061   */\n      tag_91\n        /* \"#utility.yul\":1055:1060   */\n      dup2\n        /* \"#utility.yul\":1028:1061   */\n      tag_58\n      jump\t// in\n    tag_91:\n        /* \"#utility.yul\":928:1067   */\n      swap3\n      swap2\n      pop\n      pop\n      jump\t// out\n        /* \"#utility.yul\":1073:1199   */\n    tag_60:\n        /* \"#utility.yul\":1110:1117   */\n      0x00\n        /* \"#utility.yul\":1150:1192   */\n      0xffffffffffffffffffffffffffffffffffffffff\n        /* \"#utility.yul\":1143:1148   */\n      dup3\n        /* \"#utility.yul\":1139:1193   */\n      and\n        /* \"#utility.yul\":1128:1193   */\n      swap1\n      pop\n        /* \"#utility.yul\":1073:1199   */\n      swap2\n      swap1\n      pop\n      jump\t// out\n        /* \"#utility.yul\":1205:1309   */\n    tag_61:\n        /* \"#utility.yul\":1250:1257   */\n      0x00\n        /* \"#utility.yul\":1279:1303   */\n      tag_94\n        /* \"#utility.yul\":1297:1302   */\n      dup3\n        /* \"#utility.yul\":1279:1303   */\n      tag_60\n      jump\t// in\n    tag_94:\n        /* \"#utility.yul\":1268:1303   */\n      swap1\n      pop\n        /* \"#utility.yul\":1205:1309   */\n      swap2\n      swap1\n      pop\n      jump\t// out\n        /* \"#utility.yul\":1315:1453   */\n    tag_62:\n        /* \"#utility.yul\":1396:1428   */\n      tag_96\n        /* \"#utility.yul\":1422:1427   */\n      dup2\n        /* \"#utility.yul\":1396:1428   */\n      tag_61\n      jump\t// in\n    tag_96:\n        /* \"#utility.yul\":1389:1394   */\n      dup2\n        /* \"#utility.yul\":1386:1429   */\n      eq\n        /* \"#utility.yul\":1376:1447   */\n      tag_97\n      jumpi\n        /* \"#utility.yul\":1443:1444   */\n      0x00\n        /* \"#utility.yul\":1440:1441   */\n      dup1\n        /* \"#utility.yul\":1433:1445   */\n      revert\n        /* \"#utility.yul\":1376:1447   */\n    tag_97:\n        /* \"#utility.yul\":1315:1453   */\n      pop\n      jump\t// out\n        /* \"#utility.yul\":1459:1614   */\n    tag_63:\n        /* \"#utility.yul\":1513:1518   */\n      0x00\n        /* \"#utility.yul\":1551:1557   */\n      dup2\n        /* \"#utility.yul\":1538:1558   */\n      calldataload\n        /* \"#utility.yul\":1529:1558   */\n      swap1\n      pop\n        /* \"#utility.yul\":1567:1608   */\n      tag_99\n        /* \"#utility.yul\":1602:1607   */\n      dup2\n        /* \"#utility.yul\":1567:1608   */\n      tag_62\n      jump\t// in\n    tag_99:\n        /* \"#utility.yul\":1459:1614   */\n      swap3\n      swap2\n      pop\n      pop\n      jump\t// out\n        /* \"#utility.yul\":1620:2110   */\n    tag_14:\n        /* \"#utility.yul\":1696:1702   */\n      0x00\n        /* \"#utility.yul\":1704:1710   */\n      dup1\n        /* \"#utility.yul\":1753:1755   */\n      0x40\n        /* \"#utility.yul\":1741:1750   */\n      dup4\n        /* \"#utility.yul\":1732:1739   */\n      dup6\n        /* \"#utility.yul\":1728:1751   */\n      sub\n        /* \"#utility.yul\":1724:1756   */\n      slt\n        /* \"#utility.yul\":1721:1840   */\n      iszero\n      tag_101\n      jumpi\n        /* \"#utility.yul\":1759:1838   */\n      tag_102\n      tag_56\n      jump\t// in\n    tag_102:\n        /* \"#utility.yul\":1721:1840   */\n    tag_101:\n        /* \"#utility.yul\":1879:1880   */\n      0x00\n        /* \"#utility.yul\":1904:1957   */\n      tag_103\n        /* \"#utility.yul\":1949:1956   */\n      dup6\n        /* \"#utility.yul\":1940:1946   */\n      dup3\n        /* \"#utility.yul\":1929:1938   */\n      dup7\n        /* \"#utility.yul\":1925:1947   */\n      add\n        /* \"#utility.yul\":1904:1957   */\n      tag_59\n      jump\t// in\n    tag_103:\n        /* \"#utility.yul\":1894:1957   */\n      swap3\n      pop\n        /* \"#utility.yul\":1850:1967   */\n      pop\n        /* \"#utility.yul\":2006:2008   */\n      0x20\n        /* \"#utility.yul\":2032:2093   */\n      tag_104\n        /* \"#utility.yul\":2085:2092   */\n      dup6\n        /* \"#utility.yul\":2076:2082   */\n      dup3\n        /* \"#utility.yul\":2065:2074   */\n      dup7\n        /* \"#utility.yul\":2061:2083   */\n      add\n        /* \"#utility.yul\":2032:2093   */\n      tag_63\n      jump\t// in\n    tag_104:\n        /* \"#utility.yul\":2022:2093   */\n      swap2\n      pop\n        /* \"#utility.yul\":1977:2103   */\n      pop\n        /* \"#utility.yul\":1620:2110   */\n      swap3\n      pop\n      swap3\n      swap1\n      pop\n      jump\t// out\n        /* \"#utility.yul\":2116:2212   */\n    tag_64:\n        /* \"#utility.yul\":2153:2160   */\n      0x00\n        /* \"#utility.yul\":2182:2206   */\n      tag_106\n        /* \"#utility.yul\":2200:2205   */\n      dup3\n        /* \"#utility.yul\":2182:2206   */\n      tag_60\n      jump\t// in\n    tag_106:\n        /* \"#utility.yul\":2171:2206   */\n      swap1\n      pop\n        /* \"#utility.yul\":2116:2212   */\n      swap2\n      swap1\n      pop\n      jump\t// out\n        /* \"#utility.yul\":2218:2336   */\n    tag_65:\n        /* \"#utility.yul\":2305:2329   */\n      tag_108\n        /* \"#utility.yul\":2323:2328   */\n      dup2\n        /* \"#utility.yul\":2305:2329   */\n      tag_64\n      jump\t// in\n    tag_108:\n        /* \"#utility.yul\":2300:2303   */\n      dup3\n        /* \"#utility.yul\":2293:2330   */\n      mstore\n        /* \"#utility.yul\":2218:2336   */\n      pop\n      pop\n      jump\t// out\n        /* \"#utility.yul\":2342:2564   */\n    tag_20:\n        /* \"#utility.yul\":2435:2439   */\n      0x00\n        /* \"#utility.yul\":2473:2475   */\n      0x20\n        /* \"#utility.yul\":2462:2471   */\n      dup3\n        /* \"#utility.yul\":2458:2476   */\n      add\n        /* \"#utility.yul\":2450:2476   */\n      swap1\n      pop\n        /* \"#utility.yul\":2486:2557   */\n      tag_110\n        /* \"#utility.yul\":2554:2555   */\n      0x00\n        /* \"#utility.yul\":2543:2552   */\n      dup4\n        /* \"#utility.yul\":2539:2556   */\n      add\n        /* \"#utility.yul\":2530:2536   */\n      dup5\n        /* \"#utility.yul\":2486:2557   */\n      tag_65\n      jump\t// in\n    tag_110:\n        /* \"#utility.yul\":2342:2564   */\n      swap3\n      swap2\n      pop\n      pop\n      jump\t// out\n        /* \"#utility.yul\":2570:2688   */\n    tag_66:\n        /* \"#utility.yul\":2657:2681   */\n      tag_112\n        /* \"#utility.yul\":2675:2680   */\n      dup2\n        /* \"#utility.yul\":2657:2681   */\n      tag_53\n      jump\t// in\n    tag_112:\n        /* \"#utility.yul\":2652:2655   */\n      dup3\n        /* \"#utility.yul\":2645:2682   */\n      mstore\n        /* \"#utility.yul\":2570:2688   */\n      pop\n      pop\n      jump\t// out\n        /* \"#utility.yul\":2694:2916   */\n    tag_25:\n        /* \"#utility.yul\":2787:2791   */\n      0x00\n        /* \"#utility.yul\":2825:2827   */\n      0x20\n        /* \"#utility.yul\":2814:2823   */\n      dup3\n        /* \"#utility.yul\":2810:2828   */\n      add\n        /* \"#utility.yul\":2802:2828   */\n      swap1\n      pop\n        /* \"#utility.yul\":2838:2909   */\n      tag_114\n        /* \"#utility.yul\":2906:2907   */\n      0x00\n        /* \"#utility.yul\":2895:2904   */\n      dup4\n        /* \"#utility.yul\":2891:2908   */\n      add\n        /* \"#utility.yul\":2882:2888   */\n      dup5\n        /* \"#utility.yul\":2838:2909   */\n      tag_66\n      jump\t// in\n    tag_114:\n        /* \"#utility.yul\":2694:2916   */\n      swap3\n      swap2\n      pop\n      pop\n      jump\t// out\n        /* \"#utility.yul\":2922:3091   */\n    tag_67:\n        /* \"#utility.yul\":3006:3017   */\n      0x00\n        /* \"#utility.yul\":3040:3046   */\n      dup3\n        /* \"#utility.yul\":3035:3038   */\n      dup3\n        /* \"#utility.yul\":3028:3047   */\n      mstore\n        /* \"#utility.yul\":3080:3084   */\n      0x20\n        /* \"#utility.yul\":3075:3078   */\n      dup3\n        /* \"#utility.yul\":3071:3085   */\n      add\n        /* \"#utility.yul\":3056:3085   */\n      swap1\n      pop\n        /* \"#utility.yul\":2922:3091   */\n      swap3\n      swap2\n      pop\n      pop\n      jump\t// out\n        /* \"#utility.yul\":3097:3270   */\n    tag_68:\n        /* \"#utility.yul\":3237:3262   */\n      0x4f6e6c79206f776e65722063616e207769746864726177000000000000000000\n        /* \"#utility.yul\":3233:3234   */\n      0x00\n        /* \"#utility.yul\":3225:3231   */\n      dup3\n        /* \"#utility.yul\":3221:3235   */\n      add\n        /* \"#utility.yul\":3214:3263   */\n      mstore\n        /* \"#utility.yul\":3097:3270   */\n      pop\n      jump\t// out\n        /* \"#utility.yul\":3276:3642   */\n    tag_69:\n        /* \"#utility.yul\":3418:3421   */\n      0x00\n        /* \"#utility.yul\":3439:3506   */\n      tag_118\n        /* \"#utility.yul\":3503:3505   */\n      0x17\n        /* \"#utility.yul\":3498:3501   */\n      dup4\n        /* \"#utility.yul\":3439:3506   */\n      tag_67\n      jump\t// in\n    tag_118:\n        /* \"#utility.yul\":3432:3506   */\n      swap2\n      pop\n        /* \"#utility.yul\":3515:3608   */\n      tag_119\n        /* \"#utility.yul\":3604:3607   */\n      dup3\n        /* \"#utility.yul\":3515:3608   */\n      tag_68\n      jump\t// in\n    tag_119:\n        /* \"#utility.yul\":3633:3635   */\n      0x20\n        /* \"#utility.yul\":3628:3631   */\n      dup3\n        /* \"#utility.yul\":3624:3636   */\n      add\n        /* \"#utility.yul\":3617:3636   */\n      swap1\n      pop\n        /* \"#utility.yul\":3276:3642   */\n      swap2\n      swap1\n      pop\n      jump\t// out\n        /* \"#utility.yul\":3648:4067   */\n    tag_33:\n        /* \"#utility.yul\":3814:3818   */\n      0x00\n        /* \"#utility.yul\":3852:3854   */\n      0x20\n        /* \"#utility.yul\":3841:3850   */\n      dup3\n        /* \"#utility.yul\":3837:3855   */\n      add\n        /* \"#utility.yul\":3829:3855   */\n      swap1\n      pop\n        /* \"#utility.yul\":3901:3910   */\n      dup2\n        /* \"#utility.yul\":3895:3899   */\n      dup2\n        /* \"#utility.yul\":3891:3911   */\n      sub\n        /* \"#utility.yul\":3887:3888   */\n      0x00\n        /* \"#utility.yul\":3876:3885   */\n      dup4\n        /* \"#utility.yul\":3872:3889   */\n      add\n        /* \"#utility.yul\":3865:3912   */\n      mstore\n        /* \"#utility.yul\":3929:4060   */\n      tag_121\n        /* \"#utility.yul\":4055:4059   */\n      dup2\n        /* \"#utility.yul\":3929:4060   */\n      tag_69\n      jump\t// in\n    tag_121:\n        /* \"#utility.yul\":3921:4060   */\n      swap1\n      pop\n        /* \"#utility.yul\":3648:4067   */\n      swap2\n      swap1\n      pop\n      jump\t// out\n        /* \"#utility.yul\":4073:4241   */\n    tag_70:\n        /* \"#utility.yul\":4213:4233   */\n      0x496e73756666696369656e742066756e64730000000000000000000000000000\n        /* \"#utility.yul\":4209:4210   */\n      0x00\n        /* \"#utility.yul\":4201:4207   */\n      dup3\n        /* \"#utility.yul\":4197:4211   */\n      add\n        /* \"#utility.yul\":4190:4234   */\n      mstore\n        /* \"#utility.yul\":4073:4241   */\n      pop\n      jump\t// out\n        /* \"#utility.yul\":4247:4613   */\n    tag_71:\n        /* \"#utility.yul\":4389:4392   */\n      0x00\n        /* \"#utility.yul\":4410:4477   */\n      tag_124\n        /* \"#utility.yul\":4474:4476   */\n      0x12\n        /* \"#utility.yul\":4469:4472   */\n      dup4\n        /* \"#utility.yul\":4410:4477   */\n      tag_67\n      jump\t// in\n    tag_124:\n        /* \"#utility.yul\":4403:4477   */\n      swap2\n      pop\n        /* \"#utility.yul\":4486:4579   */\n      tag_125\n        /* \"#utility.yul\":4575:4578   */\n      dup3\n        /* \"#utility.yul\":4486:4579   */\n      tag_70\n      jump\t// in\n    tag_125:\n        /* \"#utility.yul\":4604:4606   */\n      0x20\n        /* \"#utility.yul\":4599:4602   */\n      dup3\n        /* \"#utility.yul\":4595:4607   */\n      add\n        /* \"#utility.yul\":4588:4607   */\n      swap1\n      pop\n        /* \"#utility.yul\":4247:4613   */\n      swap2\n      swap1\n      pop\n      jump\t// out\n        /* \"#utility.yul\":4619:5038   */\n    tag_37:\n        /* \"#utility.yul\":4785:4789   */\n      0x00\n        /* \"#utility.yul\":4823:4825   */\n      0x20\n        /* \"#utility.yul\":4812:4821   */\n      dup3\n        /* \"#utility.yul\":4808:4826   */\n      add\n        /* \"#utility.yul\":4800:4826   */\n      swap1\n      pop\n        /* \"#utility.yul\":4872:4881   */\n      dup2\n        /* \"#utility.yul\":4866:4870   */\n      dup2\n        /* \"#utility.yul\":4862:4882   */\n      sub\n        /* \"#utility.yul\":4858:4859   */\n      0x00\n        /* \"#utility.yul\":4847:4856   */\n      dup4\n        /* \"#utility.yul\":4843:4860   */\n      add\n        /* \"#utility.yul\":4836:4883   */\n      mstore\n        /* \"#utility.yul\":4900:5031   */\n      tag_127\n        /* \"#utility.yul\":5026:5030   */\n      dup2\n        /* \"#utility.yul\":4900:5031   */\n      tag_71\n      jump\t// in\n    tag_127:\n        /* \"#utility.yul\":4892:5031   */\n      swap1\n      pop\n        /* \"#utility.yul\":4619:5038   */\n      swap2\n      swap1\n      pop\n      jump\t// out\n        /* \"#utility.yul\":5044:5238   */\n    tag_41:\n        /* \"#utility.yul\":5084:5088   */\n      0x00\n        /* \"#utility.yul\":5104:5124   */\n      tag_129\n        /* \"#utility.yul\":5122:5123   */\n      dup3\n        /* \"#utility.yul\":5104:5124   */\n      tag_53\n      jump\t// in\n    tag_129:\n        /* \"#utility.yul\":5099:5124   */\n      swap2\n      pop\n        /* \"#utility.yul\":5138:5158   */\n      tag_130\n        /* \"#utility.yul\":5156:5157   */\n      dup4\n        /* \"#utility.yul\":5138:5158   */\n      tag_53\n      jump\t// in\n    tag_130:\n        /* \"#utility.yul\":5133:5158   */\n      swap3\n      pop\n        /* \"#utility.yul\":5182:5183   */\n      dup3\n        /* \"#utility.yul\":5179:5180   */\n      dup3\n        /* \"#utility.yul\":5175:5184   */\n      sub\n        /* \"#utility.yul\":5167:5184   */\n      swap1\n      pop\n        /* \"#utility.yul\":5206:5207   */\n      dup2\n        /* \"#utility.yul\":5200:5204   */\n      dup2\n        /* \"#utility.yul\":5197:5208   */\n      gt\n        /* \"#utility.yul\":5194:5231   */\n      iszero\n      tag_131\n      jumpi\n        /* \"#utility.yul\":5211:5229   */\n      tag_132\n      tag_54\n      jump\t// in\n    tag_132:\n        /* \"#utility.yul\":5194:5231   */\n    tag_131:\n        /* \"#utility.yul\":5044:5238   */\n      swap3\n      swap2\n      pop\n      pop\n      jump\t// out\n        /* \"#utility.yul\":5244:5477   */\n    tag_72:\n        /* \"#utility.yul\":5384:5418   */\n      0x436f6e67726174732c20796f7572207472616e73616374696f6e206861732062\n        /* \"#utility.yul\":5380:5381   */\n      0x00\n        /* \"#utility.yul\":5372:5378   */\n      dup3\n        /* \"#utility.yul\":5368:5382   */\n      add\n        /* \"#utility.yul\":5361:5419   */\n      mstore\n        /* \"#utility.yul\":5453:5469   */\n      0x65656e2070726f63657373656421000000000000000000000000000000000000\n        /* \"#utility.yul\":5448:5450   */\n      0x20\n        /* \"#utility.yul\":5440:5446   */\n      dup3\n        /* \"#utility.yul\":5436:5451   */\n      add\n        /* \"#utility.yul\":5429:5470   */\n      mstore\n        /* \"#utility.yul\":5244:5477   */\n      pop\n      jump\t// out\n        /* \"#utility.yul\":5483:5849   */\n    tag_73:\n        /* \"#utility.yul\":5625:5628   */\n      0x00\n        /* \"#utility.yul\":5646:5713   */\n      tag_135\n        /* \"#utility.yul\":5710:5712   */\n      0x2e\n        /* \"#utility.yul\":5705:5708   */\n      dup4\n        /* \"#utility.yul\":5646:5713   */\n      tag_67\n      jump\t// in\n    tag_135:\n        /* \"#utility.yul\":5639:5713   */\n      swap2\n      pop\n        /* \"#utility.yul\":5722:5815   */\n      tag_136\n        /* \"#utility.yul\":5811:5814   */\n      dup3\n        /* \"#utility.yul\":5722:5815   */\n      tag_72\n      jump\t// in\n    tag_136:\n        /* \"#utility.yul\":5840:5842   */\n      0x40\n        /* \"#utility.yul\":5835:5838   */\n      dup3\n        /* \"#utility.yul\":5831:5843   */\n      add\n        /* \"#utility.yul\":5824:5843   */\n      swap1\n      pop\n        /* \"#utility.yul\":5483:5849   */\n      swap2\n      swap1\n      pop\n      jump\t// out\n        /* \"#utility.yul\":5855:6384   */\n    tag_43:\n        /* \"#utility.yul\":6049:6053   */\n      0x00\n        /* \"#utility.yul\":6087:6089   */\n      0x40\n        /* \"#utility.yul\":6076:6085   */\n      dup3\n        /* \"#utility.yul\":6072:6090   */\n      add\n        /* \"#utility.yul\":6064:6090   */\n      swap1\n      pop\n        /* \"#utility.yul\":6100:6171   */\n      tag_138\n        /* \"#utility.yul\":6168:6169   */\n      0x00\n        /* \"#utility.yul\":6157:6166   */\n      dup4\n        /* \"#utility.yul\":6153:6170   */\n      add\n        /* \"#utility.yul\":6144:6150   */\n      dup5\n        /* \"#utility.yul\":6100:6171   */\n      tag_65\n      jump\t// in\n    tag_138:\n        /* \"#utility.yul\":6218:6227   */\n      dup2\n        /* \"#utility.yul\":6212:6216   */\n      dup2\n        /* \"#utility.yul\":6208:6228   */\n      sub\n        /* \"#utility.yul\":6203:6205   */\n      0x20\n        /* \"#utility.yul\":6192:6201   */\n      dup4\n        /* \"#utility.yul\":6188:6206   */\n      add\n        /* \"#utility.yul\":6181:6229   */\n      mstore\n        /* \"#utility.yul\":6246:6377   */\n      tag_139\n        /* \"#utility.yul\":6372:6376   */\n      dup2\n        /* \"#utility.yul\":6246:6377   */\n      tag_73\n      jump\t// in\n    tag_139:\n        /* \"#utility.yul\":6238:6377   */\n      swap1\n      pop\n        /* \"#utility.yul\":5855:6384   */\n      swap3\n      swap2\n      pop\n      pop\n      jump\t// out\n        /* \"#utility.yul\":6390:6569   */\n    tag_74:\n        /* \"#utility.yul\":6530:6561   */\n      0x436f6e67726174732c20796f752068617665206a757374207472617321000000\n        /* \"#utility.yul\":6526:6527   */\n      0x00\n        /* \"#utility.yul\":6518:6524   */\n      dup3\n        /* \"#utility.yul\":6514:6528   */\n      add\n        /* \"#utility.yul\":6507:6562   */\n      mstore\n        /* \"#utility.yul\":6390:6569   */\n      pop\n      jump\t// out\n        /* \"#utility.yul\":6575:6941   */\n    tag_75:\n        /* \"#utility.yul\":6717:6720   */\n      0x00\n        /* \"#utility.yul\":6738:6805   */\n      tag_142\n        /* \"#utility.yul\":6802:6804   */\n      0x1d\n        /* \"#utility.yul\":6797:6800   */\n      dup4\n        /* \"#utility.yul\":6738:6805   */\n      tag_67\n      jump\t// in\n    tag_142:\n        /* \"#utility.yul\":6731:6805   */\n      swap2\n      pop\n        /* \"#utility.yul\":6814:6907   */\n      tag_143\n        /* \"#utility.yul\":6903:6906   */\n      dup3\n        /* \"#utility.yul\":6814:6907   */\n      tag_74\n      jump\t// in\n    tag_143:\n        /* \"#utility.yul\":6932:6934   */\n      0x20\n        /* \"#utility.yul\":6927:6930   */\n      dup3\n        /* \"#utility.yul\":6923:6935   */\n      add\n        /* \"#utility.yul\":6916:6935   */\n      swap1\n      pop\n        /* \"#utility.yul\":6575:6941   */\n      swap2\n      swap1\n      pop\n      jump\t// out\n        /* \"#utility.yul\":6947:7476   */\n    tag_52:\n        /* \"#utility.yul\":7141:7145   */\n      0x00\n        /* \"#utility.yul\":7179:7181   */\n      0x40\n        /* \"#utility.yul\":7168:7177   */\n      dup3\n        /* \"#utility.yul\":7164:7182   */\n      add\n        /* \"#utility.yul\":7156:7182   */\n      swap1\n      pop\n        /* \"#utility.yul\":7192:7263   */\n      tag_145\n        /* \"#utility.yul\":7260:7261   */\n      0x00\n        /* \"#utility.yul\":7249:7258   */\n      dup4\n        /* \"#utility.yul\":7245:7262   */\n      add\n        /* \"#utility.yul\":7236:7242   */\n      dup5\n        /* \"#utility.yul\":7192:7263   */\n      tag_65\n      jump\t// in\n    tag_145:\n        /* \"#utility.yul\":7310:7319   */\n      dup2\n        /* \"#utility.yul\":7304:7308   */\n      dup2\n        /* \"#utility.yul\":7300:7320   */\n      sub\n        /* \"#utility.yul\":7295:7297   */\n      0x20\n        /* \"#utility.yul\":7284:7293   */\n      dup4\n        /* \"#utility.yul\":7280:7298   */\n      add\n        /* \"#utility.yul\":7273:7321   */\n      mstore\n        /* \"#utility.yul\":7338:7469   */\n      tag_146\n        /* \"#utility.yul\":7464:7468   */\n      dup2\n        /* \"#utility.yul\":7338:7469   */\n      tag_75\n      jump\t// in\n    tag_146:\n        /* \"#utility.yul\":7330:7469   */\n      swap1\n      pop\n        /* \"#utility.yul\":6947:7476   */\n      swap3\n      swap2\n      pop\n      pop\n      jump\t// out\n\n    auxdata: 0xa2646970667358221220d3cfd4754893616dd9ed5a7f0e2a7e87ee6937eb6c4f7acdfaa3a2aca6515acc64736f6c63430008110033\n}\n",
				"bytecode": {
					"linkReferences": {},
					"object": "608060405234801561001057600080fd5b50336000806101000a81548173ffffffffffffffffffffffffffffffffffffffff021916908373ffffffffffffffffffffffffffffffffffffffff160217905550610797806100606000396000f3fe6080604052600436106100425760003560e01c8062f714ce146100665780638da5cb5b1461008f578063b69ef8a8146100ba578063b7760c8f146100e557610061565b3661006157346001600082825461005991906103c1565b925050819055005b600080fd5b34801561007257600080fd5b5061008d60048036038101906100889190610484565b61010e565b005b34801561009b57600080fd5b506100a461027c565b6040516100b191906104e5565b60405180910390f35b3480156100c657600080fd5b506100cf6102a0565b6040516100dc919061050f565b60405180910390f35b3480156100f157600080fd5b5061010c60048036038101906101079190610484565b6102a6565b005b60008054906101000a900473ffffffffffffffffffffffffffffffffffffffff1673ffffffffffffffffffffffffffffffffffffffff163373ffffffffffffffffffffffffffffffffffffffff161461019c576040517f08c379a000000000000000000000000000000000000000000000000000000000815260040161019390610587565b60405180910390fd5b6001548211156101e1576040517f08c379a00000000000000000000000000000000000000000000000000000000081526004016101d8906105f3565b60405180910390fd5b8073ffffffffffffffffffffffffffffffffffffffff166108fc839081150290604051600060405180830381858888f19350505050158015610227573d6000803e3d6000fd5b50816001600082825461023a9190610613565b925050819055507f9b3d185e86c934787e48a2eb1d737e4fe80c98d0a2c98b6ce95c4f36f1c93a043360405161027091906106b9565b60405180910390a15050565b60008054906101000a900473ffffffffffffffffffffffffffffffffffffffff1681565b60015481565b816001548111156102ec576040517f08c379a00000000000000000000000000000000000000000000000000000000081526004016102e3906105f3565b60405180910390fd5b8173ffffffffffffffffffffffffffffffffffffffff166108fc849081150290604051600060405180830381858888f19350505050158015610332573d6000803e3d6000fd5b5082600160008282546103459190610613565b925050819055507f9b3d185e86c934787e48a2eb1d737e4fe80c98d0a2c98b6ce95c4f36f1c93a043360405161037b9190610733565b60405180910390a1505050565b6000819050919050565b7f4e487b7100000000000000000000000000000000000000000000000000000000600052601160045260246000fd5b60006103cc82610388565b91506103d783610388565b92508282019050808211156103ef576103ee610392565b5b92915050565b600080fd5b61040381610388565b811461040e57600080fd5b50565b600081359050610420816103fa565b92915050565b600073ffffffffffffffffffffffffffffffffffffffff82169050919050565b600061045182610426565b9050919050565b61046181610446565b811461046c57600080fd5b50565b60008135905061047e81610458565b92915050565b6000806040838503121561049b5761049a6103f5565b5b60006104a985828601610411565b92505060206104ba8582860161046f565b9150509250929050565b60006104cf82610426565b9050919050565b6104df816104c4565b82525050565b60006020820190506104fa60008301846104d6565b92915050565b61050981610388565b82525050565b60006020820190506105246000830184610500565b92915050565b600082825260208201905092915050565b7f4f6e6c79206f776e65722063616e207769746864726177000000000000000000600082015250565b600061057160178361052a565b915061057c8261053b565b602082019050919050565b600060208201905081810360008301526105a081610564565b9050919050565b7f496e73756666696369656e742066756e64730000000000000000000000000000600082015250565b60006105dd60128361052a565b91506105e8826105a7565b602082019050919050565b6000602082019050818103600083015261060c816105d0565b9050919050565b600061061e82610388565b915061062983610388565b925082820390508181111561064157610640610392565b5b92915050565b7f436f6e67726174732c20796f7572207472616e73616374696f6e20686173206260008201527f65656e2070726f63657373656421000000000000000000000000000000000000602082015250565b60006106a3602e8361052a565b91506106ae82610647565b604082019050919050565b60006040820190506106ce60008301846104d6565b81810360208301526106df81610696565b905092915050565b7f436f6e67726174732c20796f752068617665206a757374207472617321000000600082015250565b600061071d601d8361052a565b9150610728826106e7565b602082019050919050565b600060408201905061074860008301846104d6565b818103602083015261075981610710565b90509291505056fea2646970667358221220d3cfd4754893616dd9ed5a7f0e2a7e87ee6937eb6c4f7acdfaa3a2aca6515acc64736f6c63430008110033",
					"opcodes": "PUSH1 0x80 PUSH1 0x40 MSTORE CALLVALUE DUP1 ISZERO PUSH2 0x10 JUMPI PUSH1 0x0 DUP1 REVERT JUMPDEST POP CALLER PUSH1 0x0 DUP1 PUSH2 0x100 EXP DUP2 SLOAD DUP2 PUSH20 0xFFFFFFFFFFFFFFFFFFFFFFFFFFFFFFFFFFFFFFFF MUL NOT AND SWAP1 DUP4 PUSH20 0xFFFFFFFFFFFFFFFFFFFFFFFFFFFFFFFFFFFFFFFF AND MUL OR SWAP1 SSTORE POP PUSH2 0x797 DUP1 PUSH2 0x60 PUSH1 0x0 CODECOPY PUSH1 0x0 RETURN INVALID PUSH1 0x80 PUSH1 0x40 MSTORE PUSH1 0x4 CALLDATASIZE LT PUSH2 0x42 JUMPI PUSH1 0x0 CALLDATALOAD PUSH1 0xE0 SHR DUP1 PUSH3 0xF714CE EQ PUSH2 0x66 JUMPI DUP1 PUSH4 0x8DA5CB5B EQ PUSH2 0x8F JUMPI DUP1 PUSH4 0xB69EF8A8 EQ PUSH2 0xBA JUMPI DUP1 PUSH4 0xB7760C8F EQ PUSH2 0xE5 JUMPI PUSH2 0x61 JUMP JUMPDEST CALLDATASIZE PUSH2 0x61 JUMPI CALLVALUE PUSH1 0x1 PUSH1 0x0 DUP3 DUP3 SLOAD PUSH2 0x59 SWAP2 SWAP1 PUSH2 0x3C1 JUMP JUMPDEST SWAP3 POP POP DUP2 SWAP1 SSTORE STOP JUMPDEST PUSH1 0x0 DUP1 REVERT JUMPDEST CALLVALUE DUP1 ISZERO PUSH2 0x72 JUMPI PUSH1 0x0 DUP1 REVERT JUMPDEST POP PUSH2 0x8D PUSH1 0x4 DUP1 CALLDATASIZE SUB DUP2 ADD SWAP1 PUSH2 0x88 SWAP2 SWAP1 PUSH2 0x484 JUMP JUMPDEST PUSH2 0x10E JUMP JUMPDEST STOP JUMPDEST CALLVALUE DUP1 ISZERO PUSH2 0x9B JUMPI PUSH1 0x0 DUP1 REVERT JUMPDEST POP PUSH2 0xA4 PUSH2 0x27C JUMP JUMPDEST PUSH1 0x40 MLOAD PUSH2 0xB1 SWAP2 SWAP1 PUSH2 0x4E5 JUMP JUMPDEST PUSH1 0x40 MLOAD DUP1 SWAP2 SUB SWAP1 RETURN JUMPDEST CALLVALUE DUP1 ISZERO PUSH2 0xC6 JUMPI PUSH1 0x0 DUP1 REVERT JUMPDEST POP PUSH2 0xCF PUSH2 0x2A0 JUMP JUMPDEST PUSH1 0x40 MLOAD PUSH2 0xDC SWAP2 SWAP1 PUSH2 0x50F JUMP JUMPDEST PUSH1 0x40 MLOAD DUP1 SWAP2 SUB SWAP1 RETURN JUMPDEST CALLVALUE DUP1 ISZERO PUSH2 0xF1 JUMPI PUSH1 0x0 DUP1 REVERT JUMPDEST POP PUSH2 0x10C PUSH1 0x4 DUP1 CALLDATASIZE SUB DUP2 ADD SWAP1 PUSH2 0x107 SWAP2 SWAP1 PUSH2 0x484 JUMP JUMPDEST PUSH2 0x2A6 JUMP JUMPDEST STOP JUMPDEST PUSH1 0x0 DUP1 SLOAD SWAP1 PUSH2 0x100 EXP SWAP1 DIV PUSH20 0xFFFFFFFFFFFFFFFFFFFFFFFFFFFFFFFFFFFFFFFF AND PUSH20 0xFFFFFFFFFFFFFFFFFFFFFFFFFFFFFFFFFFFFFFFF AND CALLER PUSH20 0xFFFFFFFFFFFFFFFFFFFFFFFFFFFFFFFFFFFFFFFF AND EQ PUSH2 0x19C JUMPI PUSH1 0x40 MLOAD PUSH32 0x8C379A000000000000000000000000000000000000000000000000000000000 DUP2 MSTORE PUSH1 0x4 ADD PUSH2 0x193 SWAP1 PUSH2 0x587 JUMP JUMPDEST PUSH1 0x40 MLOAD DUP1 SWAP2 SUB SWAP1 REVERT JUMPDEST PUSH1 0x1 SLOAD DUP3 GT ISZERO PUSH2 0x1E1 JUMPI PUSH1 0x40 MLOAD PUSH32 0x8C379A000000000000000000000000000000000000000000000000000000000 DUP2 MSTORE PUSH1 0x4 ADD PUSH2 0x1D8 SWAP1 PUSH2 0x5F3 JUMP JUMPDEST PUSH1 0x40 MLOAD DUP1 SWAP2 SUB SWAP1 REVERT JUMPDEST DUP1 PUSH20 0xFFFFFFFFFFFFFFFFFFFFFFFFFFFFFFFFFFFFFFFF AND PUSH2 0x8FC DUP4 SWAP1 DUP2 ISZERO MUL SWAP1 PUSH1 0x40 MLOAD PUSH1 0x0 PUSH1 0x40 MLOAD DUP1 DUP4 SUB DUP2 DUP6 DUP9 DUP9 CALL SWAP4 POP POP POP POP ISZERO DUP1 ISZERO PUSH2 0x227 JUMPI RETURNDATASIZE PUSH1 0x0 DUP1 RETURNDATACOPY RETURNDATASIZE PUSH1 0x0 REVERT JUMPDEST POP DUP2 PUSH1 0x1 PUSH1 0x0 DUP3 DUP3 SLOAD PUSH2 0x23A SWAP2 SWAP1 PUSH2 0x613 JUMP JUMPDEST SWAP3 POP POP DUP2 SWAP1 SSTORE POP PUSH32 0x9B3D185E86C934787E48A2EB1D737E4FE80C98D0A2C98B6CE95C4F36F1C93A04 CALLER PUSH1 0x40 MLOAD PUSH2 0x270 SWAP2 SWAP1 PUSH2 0x6B9 JUMP JUMPDEST PUSH1 0x40 MLOAD DUP1 SWAP2 SUB SWAP1 LOG1 POP POP JUMP JUMPDEST PUSH1 0x0 DUP1 SLOAD SWAP1 PUSH2 0x100 EXP SWAP1 DIV PUSH20 0xFFFFFFFFFFFFFFFFFFFFFFFFFFFFFFFFFFFFFFFF AND DUP2 JUMP JUMPDEST PUSH1 0x1 SLOAD DUP2 JUMP JUMPDEST DUP2 PUSH1 0x1 SLOAD DUP2 GT ISZERO PUSH2 0x2EC JUMPI PUSH1 0x40 MLOAD PUSH32 0x8C379A000000000000000000000000000000000000000000000000000000000 DUP2 MSTORE PUSH1 0x4 ADD PUSH2 0x2E3 SWAP1 PUSH2 0x5F3 JUMP JUMPDEST PUSH1 0x40 MLOAD DUP1 SWAP2 SUB SWAP1 REVERT JUMPDEST DUP2 PUSH20 0xFFFFFFFFFFFFFFFFFFFFFFFFFFFFFFFFFFFFFFFF AND PUSH2 0x8FC DUP5 SWAP1 DUP2 ISZERO MUL SWAP1 PUSH1 0x40 MLOAD PUSH1 0x0 PUSH1 0x40 MLOAD DUP1 DUP4 SUB DUP2 DUP6 DUP9 DUP9 CALL SWAP4 POP POP POP POP ISZERO DUP1 ISZERO PUSH2 0x332 JUMPI RETURNDATASIZE PUSH1 0x0 DUP1 RETURNDATACOPY RETURNDATASIZE PUSH1 0x0 REVERT JUMPDEST POP DUP3 PUSH1 0x1 PUSH1 0x0 DUP3 DUP3 SLOAD PUSH2 0x345 SWAP2 SWAP1 PUSH2 0x613 JUMP JUMPDEST SWAP3 POP POP DUP2 SWAP1 SSTORE POP PUSH32 0x9B3D185E86C934787E48A2EB1D737E4FE80C98D0A2C98B6CE95C4F36F1C93A04 CALLER PUSH1 0x40 MLOAD PUSH2 0x37B SWAP2 SWAP1 PUSH2 0x733 JUMP JUMPDEST PUSH1 0x40 MLOAD DUP1 SWAP2 SUB SWAP1 LOG1 POP POP POP JUMP JUMPDEST PUSH1 0x0 DUP2 SWAP1 POP SWAP2 SWAP1 POP JUMP JUMPDEST PUSH32 0x4E487B7100000000000000000000000000000000000000000000000000000000 PUSH1 0x0 MSTORE PUSH1 0x11 PUSH1 0x4 MSTORE PUSH1 0x24 PUSH1 0x0 REVERT JUMPDEST PUSH1 0x0 PUSH2 0x3CC DUP3 PUSH2 0x388 JUMP JUMPDEST SWAP2 POP PUSH2 0x3D7 DUP4 PUSH2 0x388 JUMP JUMPDEST SWAP3 POP DUP3 DUP3 ADD SWAP1 POP DUP1 DUP3 GT ISZERO PUSH2 0x3EF JUMPI PUSH2 0x3EE PUSH2 0x392 JUMP JUMPDEST JUMPDEST SWAP3 SWAP2 POP POP JUMP JUMPDEST PUSH1 0x0 DUP1 REVERT JUMPDEST PUSH2 0x403 DUP2 PUSH2 0x388 JUMP JUMPDEST DUP2 EQ PUSH2 0x40E JUMPI PUSH1 0x0 DUP1 REVERT JUMPDEST POP JUMP JUMPDEST PUSH1 0x0 DUP2 CALLDATALOAD SWAP1 POP PUSH2 0x420 DUP2 PUSH2 0x3FA JUMP JUMPDEST SWAP3 SWAP2 POP POP JUMP JUMPDEST PUSH1 0x0 PUSH20 0xFFFFFFFFFFFFFFFFFFFFFFFFFFFFFFFFFFFFFFFF DUP3 AND SWAP1 POP SWAP2 SWAP1 POP JUMP JUMPDEST PUSH1 0x0 PUSH2 0x451 DUP3 PUSH2 0x426 JUMP JUMPDEST SWAP1 POP SWAP2 SWAP1 POP JUMP JUMPDEST PUSH2 0x461 DUP2 PUSH2 0x446 JUMP JUMPDEST DUP2 EQ PUSH2 0x46C JUMPI PUSH1 0x0 DUP1 REVERT JUMPDEST POP JUMP JUMPDEST PUSH1 0x0 DUP2 CALLDATALOAD SWAP1 POP PUSH2 0x47E DUP2 PUSH2 0x458 JUMP JUMPDEST SWAP3 SWAP2 POP POP JUMP JUMPDEST PUSH1 0x0 DUP1 PUSH1 0x40 DUP4 DUP6 SUB SLT ISZERO PUSH2 0x49B JUMPI PUSH2 0x49A PUSH2 0x3F5 JUMP JUMPDEST JUMPDEST PUSH1 0x0 PUSH2 0x4A9 DUP6 DUP3 DUP7 ADD PUSH2 0x411 JUMP JUMPDEST SWAP3 POP POP PUSH1 0x20 PUSH2 0x4BA DUP6 DUP3 DUP7 ADD PUSH2 0x46F JUMP JUMPDEST SWAP2 POP POP SWAP3 POP SWAP3 SWAP1 POP JUMP JUMPDEST PUSH1 0x0 PUSH2 0x4CF DUP3 PUSH2 0x426 JUMP JUMPDEST SWAP1 POP SWAP2 SWAP1 POP JUMP JUMPDEST PUSH2 0x4DF DUP2 PUSH2 0x4C4 JUMP JUMPDEST DUP3 MSTORE POP POP JUMP JUMPDEST PUSH1 0x0 PUSH1 0x20 DUP3 ADD SWAP1 POP PUSH2 0x4FA PUSH1 0x0 DUP4 ADD DUP5 PUSH2 0x4D6 JUMP JUMPDEST SWAP3 SWAP2 POP POP JUMP JUMPDEST PUSH2 0x509 DUP2 PUSH2 0x388 JUMP JUMPDEST DUP3 MSTORE POP POP JUMP JUMPDEST PUSH1 0x0 PUSH1 0x20 DUP3 ADD SWAP1 POP PUSH2 0x524 PUSH1 0x0 DUP4 ADD DUP5 PUSH2 0x500 JUMP JUMPDEST SWAP3 SWAP2 POP POP JUMP JUMPDEST PUSH1 0x0 DUP3 DUP3 MSTORE PUSH1 0x20 DUP3 ADD SWAP1 POP SWAP3 SWAP2 POP POP JUMP JUMPDEST PUSH32 0x4F6E6C79206F776E65722063616E207769746864726177000000000000000000 PUSH1 0x0 DUP3 ADD MSTORE POP JUMP JUMPDEST PUSH1 0x0 PUSH2 0x571 PUSH1 0x17 DUP4 PUSH2 0x52A JUMP JUMPDEST SWAP2 POP PUSH2 0x57C DUP3 PUSH2 0x53B JUMP JUMPDEST PUSH1 0x20 DUP3 ADD SWAP1 POP SWAP2 SWAP1 POP JUMP JUMPDEST PUSH1 0x0 PUSH1 0x20 DUP3 ADD SWAP1 POP DUP2 DUP2 SUB PUSH1 0x0 DUP4 ADD MSTORE PUSH2 0x5A0 DUP2 PUSH2 0x564 JUMP JUMPDEST SWAP1 POP SWAP2 SWAP1 POP JUMP JUMPDEST PUSH32 0x496E73756666696369656E742066756E64730000000000000000000000000000 PUSH1 0x0 DUP3 ADD MSTORE POP JUMP JUMPDEST PUSH1 0x0 PUSH2 0x5DD PUSH1 0x12 DUP4 PUSH2 0x52A JUMP JUMPDEST SWAP2 POP PUSH2 0x5E8 DUP3 PUSH2 0x5A7 JUMP JUMPDEST PUSH1 0x20 DUP3 ADD SWAP1 POP SWAP2 SWAP1 POP JUMP JUMPDEST PUSH1 0x0 PUSH1 0x20 DUP3 ADD SWAP1 POP DUP2 DUP2 SUB PUSH1 0x0 DUP4 ADD MSTORE PUSH2 0x60C DUP2 PUSH2 0x5D0 JUMP JUMPDEST SWAP1 POP SWAP2 SWAP1 POP JUMP JUMPDEST PUSH1 0x0 PUSH2 0x61E DUP3 PUSH2 0x388 JUMP JUMPDEST SWAP2 POP PUSH2 0x629 DUP4 PUSH2 0x388 JUMP JUMPDEST SWAP3 POP DUP3 DUP3 SUB SWAP1 POP DUP2 DUP2 GT ISZERO PUSH2 0x641 JUMPI PUSH2 0x640 PUSH2 0x392 JUMP JUMPDEST JUMPDEST SWAP3 SWAP2 POP POP JUMP JUMPDEST PUSH32 0x436F6E67726174732C20796F7572207472616E73616374696F6E206861732062 PUSH1 0x0 DUP3 ADD MSTORE PUSH32 0x65656E2070726F63657373656421000000000000000000000000000000000000 PUSH1 0x20 DUP3 ADD MSTORE POP JUMP JUMPDEST PUSH1 0x0 PUSH2 0x6A3 PUSH1 0x2E DUP4 PUSH2 0x52A JUMP JUMPDEST SWAP2 POP PUSH2 0x6AE DUP3 PUSH2 0x647 JUMP JUMPDEST PUSH1 0x40 DUP3 ADD SWAP1 POP SWAP2 SWAP1 POP JUMP JUMPDEST PUSH1 0x0 PUSH1 0x40 DUP3 ADD SWAP1 POP PUSH2 0x6CE PUSH1 0x0 DUP4 ADD DUP5 PUSH2 0x4D6 JUMP JUMPDEST DUP2 DUP2 SUB PUSH1 0x20 DUP4 ADD MSTORE PUSH2 0x6DF DUP2 PUSH2 0x696 JUMP JUMPDEST SWAP1 POP SWAP3 SWAP2 POP POP JUMP JUMPDEST PUSH32 0x436F6E67726174732C20796F752068617665206A757374207472617321000000 PUSH1 0x0 DUP3 ADD MSTORE POP JUMP JUMPDEST PUSH1 0x0 PUSH2 0x71D PUSH1 0x1D DUP4 PUSH2 0x52A JUMP JUMPDEST SWAP2 POP PUSH2 0x728 DUP3 PUSH2 0x6E7 JUMP JUMPDEST PUSH1 0x20 DUP3 ADD SWAP1 POP SWAP2 SWAP1 POP JUMP JUMPDEST PUSH1 0x0 PUSH1 0x40 DUP3 ADD SWAP1 POP PUSH2 0x748 PUSH1 0x0 DUP4 ADD DUP5 PUSH2 0x4D6 JUMP JUMPDEST DUP2 DUP2 SUB PUSH1 0x20 DUP4 ADD MSTORE PUSH2 0x759 DUP2 PUSH2 0x710 JUMP JUMPDEST SWAP1 POP SWAP3 SWAP2 POP POP JUMP INVALID LOG2 PUSH5 0x6970667358 0x22 SLT KECCAK256 0xD3 0xCF 0xD4 PUSH22 0x4893616DD9ED5A7F0E2A7E87EE6937EB6C4F7ACDFAA3 LOG2 0xAC 0xA6 MLOAD GAS 0xCC PUSH5 0x736F6C6343 STOP ADDMOD GT STOP CALLER "
				},
				"gasEstimates": {
					"creation": {
						"codeDepositCost": "388600",
						"executionCost": "24690",
						"totalCost": "413290"
					},
					"external": {
						"balance()": "2451",
						"owner()": "2511",
						"transfer(uint256,address)": "infinite",
						"withdraw(uint256,address)": "infinite"
					}
				},
				"methodIdentifiers": {
					"balance()": "b69ef8a8",
					"owner()": "8da5cb5b",
					"transfer(uint256,address)": "b7760c8f",
					"withdraw(uint256,address)": "00f714ce"
				}
			},
			"storageLayout": {
				"storage": [
					{
						"astId": 3,
						"contract": "contracts/_WalletApplication.sol:WalletApp",
						"label": "owner",
						"offset": 0,
						"slot": "0",
						"type": "t_address"
					},
					{
						"astId": 5,
						"contract": "contracts/_WalletApplication.sol:WalletApp",
						"label": "balance",
						"offset": 0,
						"slot": "1",
						"type": "t_uint256"
					}
				],
				"types": {
					"t_address": {
						"encoding": "inplace",
						"label": "address",
						"numberOfBytes": "20"
					},
					"t_uint256": {
						"encoding": "inplace",
						"label": "uint256",
						"numberOfBytes": "32"
					}
				}
			},
			"userdoc": {
				"kind": "user",
				"methods": {},
				"version": 1
			}
		}
	}
}